{
  "_format": "hh-sol-artifact-1",
  "contractName": "DeFiBank",
  "sourceName": "contracts/DeFiBank.sol",
  "abi": [
    {
      "inputs": [
        {
          "internalType": "uint256",
          "name": "_amount",
          "type": "uint256"
        }
      ],
      "stateMutability": "nonpayable",
      "type": "constructor"
    },
    {
      "inputs": [],
      "name": "amount",
      "outputs": [
        {
          "internalType": "uint256",
          "name": "",
          "type": "uint256"
        }
      ],
      "stateMutability": "view",
      "type": "function"
    },
    {
      "inputs": [
        {
          "internalType": "address",
          "name": "",
          "type": "address"
        }
      ],
      "name": "bankBalance",
      "outputs": [
        {
          "internalType": "uint256",
          "name": "",
          "type": "uint256"
        }
      ],
      "stateMutability": "view",
      "type": "function"
    },
    {
      "inputs": [],
      "name": "deposit",
      "outputs": [],
      "stateMutability": "payable",
      "type": "function"
    },
    {
      "inputs": [
        {
          "internalType": "uint256",
          "name": "",
          "type": "uint256"
        }
      ],
      "name": "depositors",
      "outputs": [
        {
          "internalType": "address",
          "name": "",
          "type": "address"
        }
      ],
      "stateMutability": "view",
      "type": "function"
    },
    {
      "inputs": [],
      "name": "fee",
      "outputs": [
        {
          "internalType": "uint256",
          "name": "",
          "type": "uint256"
        }
      ],
      "stateMutability": "view",
      "type": "function"
    },
    {
      "inputs": [
        {
          "internalType": "address",
          "name": "",
          "type": "address"
        }
      ],
      "name": "hasDeposited",
      "outputs": [
        {
          "internalType": "bool",
          "name": "",
          "type": "bool"
        }
      ],
      "stateMutability": "view",
      "type": "function"
    },
    {
      "inputs": [],
      "name": "isWithdrawing",
      "outputs": [
        {
          "internalType": "bool",
          "name": "",
          "type": "bool"
        }
      ],
      "stateMutability": "view",
      "type": "function"
    },
    {
      "inputs": [],
      "name": "withdrawBalance",
      "outputs": [],
      "stateMutability": "nonpayable",
      "type": "function"
    },
    {
      "inputs": [],
      "name": "withdrawlInterest",
      "outputs": [],
      "stateMutability": "nonpayable",
      "type": "function"
    }
  ],
  "bytecode": "0x60c0604052737d2768de32b0b80b7a3454c06bdac94a69ddc7a9600460006101000a81548173ffffffffffffffffffffffffffffffffffffffff021916908373ffffffffffffffffffffffffffffffffffffffff16021790555073a0b86991c6218b36c1d19d4a2e9eb0ce3606eb48600560006101000a81548173ffffffffffffffffffffffffffffffffffffffff021916908373ffffffffffffffffffffffffffffffffffffffff160217905550739ba00d6856a4edf4665bca2c2309936572473b7e600660006101000a81548173ffffffffffffffffffffffffffffffffffffffff021916908373ffffffffffffffffffffffffffffffffffffffff1602179055503480156200011057600080fd5b50604051620021f1380380620021f1833981810160405281019062000136919062000203565b62000152677ffc6147004372f160c01b620001c060201b60201c565b6200016e67155320965fb7290b60c01b620001c060201b60201c565b806080818152505062000192679e5222e4937f93e960c01b620001c060201b60201c565b6103e86005608051620001a6919062000264565b620001b29190620002de565b60a081815250505062000316565b50565b600080fd5b6000819050919050565b620001dd81620001c8565b8114620001e957600080fd5b50565b600081519050620001fd81620001d2565b92915050565b6000602082840312156200021c576200021b620001c3565b5b60006200022c84828501620001ec565b91505092915050565b7f4e487b7100000000000000000000000000000000000000000000000000000000600052601160045260246000fd5b60006200027182620001c8565b91506200027e83620001c8565b92508282026200028e81620001c8565b91508282048414831517620002a857620002a762000235565b5b5092915050565b7f4e487b7100000000000000000000000000000000000000000000000000000000600052601260045260246000fd5b6000620002eb82620001c8565b9150620002f883620001c8565b9250826200030b576200030a620002af565b5b828204905092915050565b60805160a051611e9962000358600039600081816112d9015261179a0152600081816108fe015281816109600152818161119b01526112fa0152611e996000f3fe6080604052600436106100865760003560e01c8063c8bd0ed311610059578063c8bd0ed314610135578063d0e30db01461014c578063ddca3f4314610156578063e4b2fb7914610181578063f2c16e6f146101be57610086565b806355c32a391461008b5780635fd8c710146100b65780639839fa4a146100cd578063aa8c217c1461010a575b600080fd5b34801561009757600080fd5b506100a06101fb565b6040516100ad9190611839565b60405180910390f35b3480156100c257600080fd5b506100cb61020e565b005b3480156100d957600080fd5b506100f460048036038101906100ef91906118b7565b6108e4565b60405161010191906118fd565b60405180910390f35b34801561011657600080fd5b5061011f6108fc565b60405161012c91906118fd565b60405180910390f35b34801561014157600080fd5b5061014a610920565b005b61015461111b565b005b34801561016257600080fd5b5061016b611798565b60405161017891906118fd565b60405180910390f35b34801561018d57600080fd5b506101a860048036038101906101a39190611944565b6117bc565b6040516101b59190611980565b60405180910390f35b3480156101ca57600080fd5b506101e560048036038101906101e091906118b7565b6117fb565b6040516101f29190611839565b60405180910390f35b600160009054906101000a900460ff1681565b610222671b849e47601d770a60c01b61181b565b61023667c5ee6c3ff3bdd61860c01b61181b565b61024a67fb4f93ab6165908160c01b61181b565b6000600660009054906101000a900473ffffffffffffffffffffffffffffffffffffffff1673ffffffffffffffffffffffffffffffffffffffff166370a08231306040518263ffffffff1660e01b81526004016102a79190611980565b602060405180830381865afa1580156102c4573d6000803e3d6000fd5b505050506040513d601f19601f820116820180604052508101906102e891906119b0565b90506102fe673b55557bd8234b9760c01b61181b565b61031267dbb3297e747be86260c01b61181b565b61032667e3c6aeecc89a506e60c01b61181b565b600660009054906101000a900473ffffffffffffffffffffffffffffffffffffffff1673ffffffffffffffffffffffffffffffffffffffff1663095ea7b3600460009054906101000a900473ffffffffffffffffffffffffffffffffffffffff16836040518363ffffffff1660e01b81526004016103a59291906119dd565b6020604051808303816000875af11580156103c4573d6000803e3d6000fd5b505050506040513d601f19601f820116820180604052508101906103e89190611a32565b6103f157600080fd5b61040567f8e1544c84b9974f60c01b61181b565b6104196759f6c878b48c04a960c01b61181b565b61042d6783de19b0b8ae94bb60c01b61181b565b61044167b59af39c11ad785d60c01b61181b565b600160009054906101000a900460ff1615610491576040517f08c379a000000000000000000000000000000000000000000000000000000000815260040161048890611abc565b60405180910390fd5b6104a567ca40be1686cadec260c01b61181b565b6104b967968841a37d5ab95460c01b61181b565b60018060006101000a81548160ff0219169083151502179055506104e767abc8d7ba71b82e4960c01b61181b565b6104fb67e1ecfecece7ea71f60c01b61181b565b6000808054905067ffffffffffffffff81111561051b5761051a611adc565b5b6040519080825280602002602001820160405280156105495781602001602082028036833780820191505090505b509050610560670f0496e8e06a502f60c01b61181b565b6105746780ac6e3ad34f9ad860c01b61181b565b60005b6000805490508110156107795761059867d45900a030d9277e60c01b61181b565b600460009054906101000a900473ffffffffffffffffffffffffffffffffffffffff1673ffffffffffffffffffffffffffffffffffffffff166369328dec600560009054906101000a900473ffffffffffffffffffffffffffffffffffffffff16856000858154811061060e5761060d611b0b565b5b9060005260206000200160009054906101000a900473ffffffffffffffffffffffffffffffffffffffff166040518463ffffffff1660e01b815260040161065793929190611b3a565b6020604051808303816000875af1158015610676573d6000803e3d6000fd5b505050506040513d601f19601f8201168201806040525081019061069a91906119b0565b8282815181106106ad576106ac611b0b565b5b6020026020010181815250506106cd67f9b85e7f7315ee0660c01b61181b565b6106e16776c5fe600e2ef84b60c01b61181b565b6106f56788c8c3d903b621d760c01b61181b565b8282828151811061070957610708611b0b565b5b60200260200101511115610752576040517f08c379a000000000000000000000000000000000000000000000000000000000815260040161074990611bbd565b60405180910390fd5b610766677565f94665cabab260c01b61181b565b808061077190611c0c565b915050610577565b5061078e67c520799c00f5daab60c01b61181b565b6000600160006101000a81548160ff0219169083151502179055506107bd67e26d90513c6876a560c01b61181b565b6107d167a16c32a4e4a034f260c01b61181b565b60005b6000805490508110156108df576107f5670e7a716fcf68cd5d60c01b61181b565b60006002600080848154811061080e5761080d611b0b565b5b9060005260206000200160009054906101000a900473ffffffffffffffffffffffffffffffffffffffff1673ffffffffffffffffffffffffffffffffffffffff1673ffffffffffffffffffffffffffffffffffffffff1681526020019081526020016000208190555061088b6722a364428a05088d60c01b61181b565b6000818154811061089f5761089e611b0b565b5b9060005260206000200160006101000a81549073ffffffffffffffffffffffffffffffffffffffff021916905580806108d790611c0c565b9150506107d4565b505050565b60026020528060005260406000206000915090505481565b7f000000000000000000000000000000000000000000000000000000000000000081565b6109346787b79284d342bddb60c01b61181b565b61094867c8326b5c9003238360c01b61181b565b61095c673a7bf7e281b30d0a60c01b61181b565b60007f0000000000000000000000000000000000000000000000000000000000000000600660009054906101000a900473ffffffffffffffffffffffffffffffffffffffff1673ffffffffffffffffffffffffffffffffffffffff166370a08231306040518263ffffffff1660e01b81526004016109da9190611980565b602060405180830381865afa1580156109f7573d6000803e3d6000fd5b505050506040513d601f19601f82011682018060405250810190610a1b91906119b0565b610a259190611c54565b9050610a3b6798bed9718a5e47cd60c01b61181b565b610a4f67b76a4f830d032ec360c01b61181b565b610a636778c49eca82d43eae60c01b61181b565b600660009054906101000a900473ffffffffffffffffffffffffffffffffffffffff1673ffffffffffffffffffffffffffffffffffffffff1663095ea7b3600460009054906101000a900473ffffffffffffffffffffffffffffffffffffffff16836040518363ffffffff1660e01b8152600401610ae29291906119dd565b6020604051808303816000875af1158015610b01573d6000803e3d6000fd5b505050506040513d601f19601f82011682018060405250810190610b259190611a32565b610b64576040517f08c379a0000000000000000000000000000000000000000000000000000000008152600401610b5b90611cd4565b60405180910390fd5b610b7867d166d5f5f11409a860c01b61181b565b610b8c67d2025451d08ab7b660c01b61181b565b610ba06724151cac112ce9b760c01b61181b565b610bb4674c95f2f2f6642df560c01b61181b565b600160009054906101000a900460ff1615610c04576040517f08c379a0000000000000000000000000000000000000000000000000000000008152600401610bfb90611abc565b60405180910390fd5b610c18678a420768a529de6760c01b61181b565b610c2c6772e666d988a73ac760c01b61181b565b60018060006101000a81548160ff021916908315150217905550610c5a67aca8d24f7813fda260c01b61181b565b610c6e67a8d64e1ed4a7a04560c01b61181b565b6000808054905067ffffffffffffffff811115610c8e57610c8d611adc565b5b604051908082528060200260200182016040528015610cbc5781602001602082028036833780820191505090505b509050610cd367f9dccf91f49588b160c01b61181b565b610ce767dc4ba971e7421b5660c01b61181b565b60005b600080549050811015610eec57610d0b676a6522b454fb472e60c01b61181b565b600460009054906101000a900473ffffffffffffffffffffffffffffffffffffffff1673ffffffffffffffffffffffffffffffffffffffff166369328dec600560009054906101000a900473ffffffffffffffffffffffffffffffffffffffff168560008581548110610d8157610d80611b0b565b5b9060005260206000200160009054906101000a900473ffffffffffffffffffffffffffffffffffffffff166040518463ffffffff1660e01b8152600401610dca93929190611b3a565b6020604051808303816000875af1158015610de9573d6000803e3d6000fd5b505050506040513d601f19601f82011682018060405250810190610e0d91906119b0565b828281518110610e2057610e1f611b0b565b5b602002602001018181525050610e406729388c7dd2b4bd8d60c01b61181b565b610e54672b0eb623b815a39160c01b61181b565b610e6867c5f3daeba39b1ab660c01b61181b565b82828281518110610e7c57610e7b611b0b565b5b60200260200101511115610ec5576040517f08c379a0000000000000000000000000000000000000000000000000000000008152600401610ebc90611bbd565b60405180910390fd5b610ed967838c2af8b1f3f6c160c01b61181b565b8080610ee490611c0c565b915050610cea565b50610f01678aebdfd7efe47ee560c01b61181b565b6000600160006101000a81548160ff021916908315150217905550610f3067ef62903b233d064660c01b61181b565b610f4467a3ab5b34aa05288860c01b61181b565b60005b60008054905081101561111657610f68673e1b6a7e59d73fe760c01b61181b565b610f7c67820d97d7220d09e160c01b61181b565b6000828281518110610f9157610f90611b0b565b5b602002602001015111156110ee57610fb3677b469e2b12591d1b60c01b61181b565b610fc7670c41995fd9ef094b60c01b61181b565b818181518110610fda57610fd9611b0b565b5b602002602001015160026000808481548110610ff957610ff8611b0b565b5b9060005260206000200160009054906101000a900473ffffffffffffffffffffffffffffffffffffffff1673ffffffffffffffffffffffffffffffffffffffff1673ffffffffffffffffffffffffffffffffffffffff168152602001908152602001600020546110699190611c54565b600260008084815481106110805761107f611b0b565b5b9060005260206000200160009054906101000a900473ffffffffffffffffffffffffffffffffffffffff1673ffffffffffffffffffffffffffffffffffffffff1673ffffffffffffffffffffffffffffffffffffffff16815260200190815260200160002081905550611103565b611102678024d43990fdff6b60c01b61181b565b5b808061110e90611c0c565b915050610f47565b505050565b61112f6772138302f3b32dfa60c01b61181b565b611143675374b35815f1da8060c01b61181b565b6111576733b248a69844519b60c01b61181b565b6000600560009054906101000a900473ffffffffffffffffffffffffffffffffffffffff1673ffffffffffffffffffffffffffffffffffffffff166323b872dd33307f00000000000000000000000000000000000000000000000000000000000000006040518463ffffffff1660e01b81526004016111d893929190611cf4565b6020604051808303816000875af11580156111f7573d6000803e3d6000fd5b505050506040513d601f19601f8201168201806040525081019061121b9190611a32565b9050611231677aede064d43413a160c01b61181b565b61124567e6049deb613f248a60c01b61181b565b61125967189f1c8fa0f2aae560c01b61181b565b80611299576040517f08c379a000000000000000000000000000000000000000000000000000000000815260040161129090611d77565b60405180910390fd5b6112ad67bbedfd2fc49534e060c01b61181b565b6112c16777ec70fb3859637960c01b61181b565b6112d567299069bd6124534c60c01b61181b565b60007f00000000000000000000000000000000000000000000000000000000000000007f00000000000000000000000000000000000000000000000000000000000000006113239190611c54565b905061133967ba97d029ee97452d60c01b61181b565b61134d678fcbed1d17a11d0a60c01b61181b565b611361670f4d0d0668f4985b60c01b61181b565b600560009054906101000a900473ffffffffffffffffffffffffffffffffffffffff1673ffffffffffffffffffffffffffffffffffffffff1663095ea7b3600460009054906101000a900473ffffffffffffffffffffffffffffffffffffffff16836040518363ffffffff1660e01b81526004016113e09291906119dd565b6020604051808303816000875af11580156113ff573d6000803e3d6000fd5b505050506040513d601f19601f820116820180604052508101906114239190611a32565b611462576040517f08c379a000000000000000000000000000000000000000000000000000000000815260040161145990611cd4565b60405180910390fd5b6114766714cf4c9ce284082360c01b61181b565b61148a67b2220c6cdd10bffc60c01b61181b565b61149e672603e46bc181c6e960c01b61181b565b600460009054906101000a900473ffffffffffffffffffffffffffffffffffffffff1673ffffffffffffffffffffffffffffffffffffffff1663e8eda9df600560009054906101000a900473ffffffffffffffffffffffffffffffffffffffff16833060006040518563ffffffff1660e01b81526004016115229493929190611dea565b600060405180830381600087803b15801561153c57600080fd5b505af1158015611550573d6000803e3d6000fd5b5050505061156867c66a5d1217a7687b60c01b61181b565b80600260003373ffffffffffffffffffffffffffffffffffffffff1673ffffffffffffffffffffffffffffffffffffffff168152602001908152602001600020546115b39190611e2f565b600260003373ffffffffffffffffffffffffffffffffffffffff1673ffffffffffffffffffffffffffffffffffffffff1681526020019081526020016000208190555061160a6725cb8dad9db6e7c860c01b61181b565b61161e6711f6b50bd1d6093660c01b61181b565b600360003373ffffffffffffffffffffffffffffffffffffffff1673ffffffffffffffffffffffffffffffffffffffff16815260200190815260200160002060009054906101000a900460ff166117135761168367c53d24115254dcb360c01b61181b565b61169767071cc3c84e68c0df60c01b61181b565b6116ab674ea11ca14fc440fa60c01b61181b565b6000339080600181540180825580915050600190039060005260206000200160009091909190916101000a81548173ffffffffffffffffffffffffffffffffffffffff021916908373ffffffffffffffffffffffffffffffffffffffff160217905550611728565b611727678ca47150fca635d360c01b61181b565b5b61173c6711acb7e8374b2fa060c01b61181b565b6001600360003373ffffffffffffffffffffffffffffffffffffffff1673ffffffffffffffffffffffffffffffffffffffff16815260200190815260200160002060006101000a81548160ff0219169083151502179055505050565b7f000000000000000000000000000000000000000000000000000000000000000081565b600081815481106117cc57600080fd5b906000526020600020016000915054906101000a900473ffffffffffffffffffffffffffffffffffffffff1681565b60036020528060005260406000206000915054906101000a900460ff1681565b50565b60008115159050919050565b6118338161181e565b82525050565b600060208201905061184e600083018461182a565b92915050565b600080fd5b600073ffffffffffffffffffffffffffffffffffffffff82169050919050565b600061188482611859565b9050919050565b61189481611879565b811461189f57600080fd5b50565b6000813590506118b18161188b565b92915050565b6000602082840312156118cd576118cc611854565b5b60006118db848285016118a2565b91505092915050565b6000819050919050565b6118f7816118e4565b82525050565b600060208201905061191260008301846118ee565b92915050565b611921816118e4565b811461192c57600080fd5b50565b60008135905061193e81611918565b92915050565b60006020828403121561195a57611959611854565b5b60006119688482850161192f565b91505092915050565b61197a81611879565b82525050565b60006020820190506119956000830184611971565b92915050565b6000815190506119aa81611918565b92915050565b6000602082840312156119c6576119c5611854565b5b60006119d48482850161199b565b91505092915050565b60006040820190506119f26000830185611971565b6119ff60208301846118ee565b9392505050565b611a0f8161181e565b8114611a1a57600080fd5b50565b600081519050611a2c81611a06565b92915050565b600060208284031215611a4857611a47611854565b5b6000611a5684828501611a1d565b91505092915050565b600082825260208201905092915050565b7f7265656e7472616e637920646574656374656400000000000000000000000000600082015250565b6000611aa6601383611a5f565b9150611ab182611a70565b602082019050919050565b60006020820190508181036000830152611ad581611a99565b9050919050565b7f4e487b7100000000000000000000000000000000000000000000000000000000600052604160045260246000fd5b7f4e487b7100000000000000000000000000000000000000000000000000000000600052603260045260246000fd5b6000606082019050611b4f6000830186611971565b611b5c60208301856118ee565b611b696040830184611971565b949350505050565b7f496e636f727265637420616d6f756e742077697468647261776e000000000000600082015250565b6000611ba7601a83611a5f565b9150611bb282611b71565b602082019050919050565b60006020820190508181036000830152611bd681611b9a565b9050919050565b7f4e487b7100000000000000000000000000000000000000000000000000000000600052601160045260246000fd5b6000611c17826118e4565b91507fffffffffffffffffffffffffffffffffffffffffffffffffffffffffffffffff8203611c4957611c48611bdd565b5b600182019050919050565b6000611c5f826118e4565b9150611c6a836118e4565b9250828203905081811115611c8257611c81611bdd565b5b92915050565b7f617070726f76616c206661696c65640000000000000000000000000000000000600082015250565b6000611cbe600f83611a5f565b9150611cc982611c88565b602082019050919050565b60006020820190508181036000830152611ced81611cb1565b9050919050565b6000606082019050611d096000830186611971565b611d166020830185611971565b611d2360408301846118ee565b949350505050565b7f7472616e73666572206f662066756e6473206661696c65640000000000000000600082015250565b6000611d61601883611a5f565b9150611d6c82611d2b565b602082019050919050565b60006020820190508181036000830152611d9081611d54565b9050919050565b6000819050919050565b600061ffff82169050919050565b6000819050919050565b6000611dd4611dcf611dca84611d97565b611daf565b611da1565b9050919050565b611de481611db9565b82525050565b6000608082019050611dff6000830187611971565b611e0c60208301866118ee565b611e196040830185611971565b611e266060830184611ddb565b95945050505050565b6000611e3a826118e4565b9150611e45836118e4565b9250828201905080821115611e5d57611e5c611bdd565b5b9291505056fea26469706673582212205d476f6a4c800978482295b3a099cd36bb1995b552ce8e32a6cd002a8a29f0f764736f6c63430008110033",
  "linkReferences": {},
  "deployedLinkReferences": {}
}